{
  "_format": "hh-sol-artifact-1",
  "contractName": "HarmonyERC721",
  "sourceName": "contracts/HarmonyERC721.sol",
  "abi": [
    {
      "inputs": [
        {
          "internalType": "string",
          "name": "name",
          "type": "string"
        },
        {
          "internalType": "string",
          "name": "symbol",
          "type": "string"
        }
      ],
      "stateMutability": "nonpayable",
      "type": "constructor"
    },
    {
      "anonymous": false,
      "inputs": [
        {
          "indexed": true,
          "internalType": "address",
          "name": "owner",
          "type": "address"
        },
        {
          "indexed": true,
          "internalType": "address",
          "name": "approved",
          "type": "address"
        },
        {
          "indexed": true,
          "internalType": "uint256",
          "name": "tokenId",
          "type": "uint256"
        }
      ],
      "name": "Approval",
      "type": "event"
    },
    {
      "anonymous": false,
      "inputs": [
        {
          "indexed": true,
          "internalType": "address",
          "name": "owner",
          "type": "address"
        },
        {
          "indexed": true,
          "internalType": "address",
          "name": "operator",
          "type": "address"
        },
        {
          "indexed": false,
          "internalType": "bool",
          "name": "approved",
          "type": "bool"
        }
      ],
      "name": "ApprovalForAll",
      "type": "event"
    },
    {
      "anonymous": false,
      "inputs": [
        {
          "indexed": true,
          "internalType": "address",
          "name": "from",
          "type": "address"
        },
        {
          "indexed": true,
          "internalType": "address",
          "name": "to",
          "type": "address"
        },
        {
          "indexed": true,
          "internalType": "uint256",
          "name": "tokenId",
          "type": "uint256"
        }
      ],
      "name": "Transfer",
      "type": "event"
    },
    {
      "inputs": [
        {
          "internalType": "uint256",
          "name": "BidId",
          "type": "uint256"
        }
      ],
      "name": "BidURI",
      "outputs": [
        {
          "internalType": "string",
          "name": "",
          "type": "string"
        }
      ],
      "stateMutability": "view",
      "type": "function"
    },
    {
      "inputs": [],
      "name": "_EventTokenSearchIds",
      "outputs": [
        {
          "internalType": "uint256",
          "name": "",
          "type": "uint256"
        }
      ],
      "stateMutability": "view",
      "type": "function"
    },
    {
      "inputs": [
        {
          "internalType": "uint256",
          "name": "",
          "type": "uint256"
        },
        {
          "internalType": "uint256",
          "name": "",
          "type": "uint256"
        }
      ],
      "name": "_SearchedStore",
      "outputs": [
        {
          "internalType": "string",
          "name": "",
          "type": "string"
        }
      ],
      "stateMutability": "view",
      "type": "function"
    },
    {
      "inputs": [
        {
          "internalType": "uint256",
          "name": "_tokenId",
          "type": "uint256"
        }
      ],
      "name": "_getSearchedTokenURI",
      "outputs": [
        {
          "internalType": "string",
          "name": "",
          "type": "string"
        }
      ],
      "stateMutability": "view",
      "type": "function"
    },
    {
      "inputs": [
        {
          "internalType": "uint256",
          "name": "bidId",
          "type": "uint256"
        },
        {
          "internalType": "string",
          "name": "_bidURI",
          "type": "string"
        }
      ],
      "name": "_setBidURI",
      "outputs": [],
      "stateMutability": "nonpayable",
      "type": "function"
    },
    {
      "inputs": [
        {
          "internalType": "uint256",
          "name": "eventId",
          "type": "uint256"
        },
        {
          "internalType": "string",
          "name": "_eventURI",
          "type": "string"
        }
      ],
      "name": "_setEventURI",
      "outputs": [],
      "stateMutability": "nonpayable",
      "type": "function"
    },
    {
      "inputs": [
        {
          "internalType": "uint256",
          "name": "TokenBidId",
          "type": "uint256"
        },
        {
          "internalType": "uint256",
          "name": "TokenId",
          "type": "uint256"
        },
        {
          "internalType": "string",
          "name": "_BidURI",
          "type": "string"
        }
      ],
      "name": "_setTokenBid",
      "outputs": [],
      "stateMutability": "nonpayable",
      "type": "function"
    },
    {
      "inputs": [
        {
          "internalType": "uint256",
          "name": "EventTokenId",
          "type": "uint256"
        },
        {
          "internalType": "uint256",
          "name": "EventId",
          "type": "uint256"
        },
        {
          "internalType": "string",
          "name": "_tokenURI",
          "type": "string"
        }
      ],
      "name": "_setTokenEvent",
      "outputs": [],
      "stateMutability": "nonpayable",
      "type": "function"
    },
    {
      "inputs": [
        {
          "internalType": "uint256",
          "name": "tokenId",
          "type": "uint256"
        },
        {
          "internalType": "string",
          "name": "_tokenURI",
          "type": "string"
        }
      ],
      "name": "_setTokenURI",
      "outputs": [],
      "stateMutability": "nonpayable",
      "type": "function"
    },
    {
      "inputs": [
        {
          "internalType": "address",
          "name": "to",
          "type": "address"
        },
        {
          "internalType": "uint256",
          "name": "tokenId",
          "type": "uint256"
        }
      ],
      "name": "approve",
      "outputs": [],
      "stateMutability": "nonpayable",
      "type": "function"
    },
    {
      "inputs": [
        {
          "internalType": "address",
          "name": "owner",
          "type": "address"
        }
      ],
      "name": "balanceOf",
      "outputs": [
        {
          "internalType": "uint256",
          "name": "",
          "type": "uint256"
        }
      ],
      "stateMutability": "view",
      "type": "function"
    },
    {
      "inputs": [
        {
          "internalType": "address",
          "name": "_claimer",
          "type": "address"
        },
        {
          "internalType": "string",
          "name": "_tokenURI",
          "type": "string"
        },
        {
          "internalType": "uint256",
          "name": "_eventid",
          "type": "uint256"
        }
      ],
      "name": "claimToken",
      "outputs": [
        {
          "internalType": "uint256",
          "name": "",
          "type": "uint256"
        }
      ],
      "stateMutability": "nonpayable",
      "type": "function"
    },
    {
      "inputs": [
        {
          "internalType": "uint256",
          "name": "_tokenId",
          "type": "uint256"
        },
        {
          "internalType": "string",
          "name": "_bidURI",
          "type": "string"
        },
        {
          "internalType": "string",
          "name": "_updatedURI",
          "type": "string"
        },
        {
          "internalType": "uint256",
          "name": "_eventid",
          "type": "uint256"
        }
      ],
      "name": "createBid",
      "outputs": [],
      "stateMutability": "payable",
      "type": "function"
    },
    {
      "inputs": [
        {
          "internalType": "string",
          "name": "_eventURI",
          "type": "string"
        }
      ],
      "name": "createEvent",
      "outputs": [
        {
          "internalType": "uint256",
          "name": "",
          "type": "uint256"
        }
      ],
      "stateMutability": "nonpayable",
      "type": "function"
    },
    {
      "inputs": [
        {
          "internalType": "uint256",
          "name": "eventId",
          "type": "uint256"
        }
      ],
      "name": "eventURI",
      "outputs": [
        {
          "internalType": "string",
          "name": "",
          "type": "string"
        }
      ],
      "stateMutability": "view",
      "type": "function"
    },
    {
      "inputs": [
        {
          "internalType": "uint256",
          "name": "tokenId",
          "type": "uint256"
        }
      ],
      "name": "getApproved",
      "outputs": [
        {
          "internalType": "address",
          "name": "",
          "type": "address"
        }
      ],
      "stateMutability": "view",
      "type": "function"
    },
    {
      "inputs": [
        {
          "internalType": "string",
          "name": "_bidURI",
          "type": "string"
        }
      ],
      "name": "getBidIdByUri",
      "outputs": [
        {
          "internalType": "uint256",
          "name": "",
          "type": "uint256"
        }
      ],
      "stateMutability": "view",
      "type": "function"
    },
    {
      "inputs": [
        {
          "internalType": "uint256",
          "name": "TokenID",
          "type": "uint256"
        }
      ],
      "name": "getBidsSearchToken",
      "outputs": [
        {
          "internalType": "string[]",
          "name": "",
          "type": "string[]"
        }
      ],
      "stateMutability": "view",
      "type": "function"
    },
    {
      "inputs": [
        {
          "internalType": "uint256",
          "name": "EventId",
          "type": "uint256"
        },
        {
          "internalType": "string",
          "name": "_tokenURI",
          "type": "string"
        }
      ],
      "name": "getGetEventsTokenID",
      "outputs": [
        {
          "internalType": "uint256",
          "name": "",
          "type": "uint256"
        }
      ],
      "stateMutability": "view",
      "type": "function"
    },
    {
      "inputs": [
        {
          "internalType": "uint256",
          "name": "TokenID",
          "type": "uint256"
        }
      ],
      "name": "getTotalBid",
      "outputs": [
        {
          "internalType": "string[]",
          "name": "",
          "type": "string[]"
        }
      ],
      "stateMutability": "view",
      "type": "function"
    },
    {
      "inputs": [
        {
          "internalType": "string",
          "name": "_tokenURI",
          "type": "string"
        }
      ],
      "name": "gettokenIdByUri",
      "outputs": [
        {
          "internalType": "uint256",
          "name": "",
          "type": "uint256"
        }
      ],
      "stateMutability": "view",
      "type": "function"
    },
    {
      "inputs": [
        {
          "internalType": "uint256",
          "name": "EventID",
          "type": "uint256"
        }
      ],
      "name": "gettokenSearchEventTotal",
      "outputs": [
        {
          "internalType": "string[]",
          "name": "",
          "type": "string[]"
        }
      ],
      "stateMutability": "view",
      "type": "function"
    },
    {
      "inputs": [
        {
          "internalType": "address",
          "name": "owner",
          "type": "address"
        },
        {
          "internalType": "address",
          "name": "operator",
          "type": "address"
        }
      ],
      "name": "isApprovedForAll",
      "outputs": [
        {
          "internalType": "bool",
          "name": "",
          "type": "bool"
        }
      ],
      "stateMutability": "view",
      "type": "function"
    },
    {
      "inputs": [],
      "name": "name",
      "outputs": [
        {
          "internalType": "string",
          "name": "",
          "type": "string"
        }
      ],
      "stateMutability": "view",
      "type": "function"
    },
    {
      "inputs": [
        {
          "internalType": "uint256",
          "name": "tokenId",
          "type": "uint256"
        }
      ],
      "name": "ownerOf",
      "outputs": [
        {
          "internalType": "address",
          "name": "",
          "type": "address"
        }
      ],
      "stateMutability": "view",
      "type": "function"
    },
    {
      "inputs": [
        {
          "internalType": "address",
          "name": "from",
          "type": "address"
        },
        {
          "internalType": "address",
          "name": "to",
          "type": "address"
        },
        {
          "internalType": "uint256",
          "name": "tokenId",
          "type": "uint256"
        }
      ],
      "name": "safeTransferFrom",
      "outputs": [],
      "stateMutability": "nonpayable",
      "type": "function"
    },
    {
      "inputs": [
        {
          "internalType": "address",
          "name": "from",
          "type": "address"
        },
        {
          "internalType": "address",
          "name": "to",
          "type": "address"
        },
        {
          "internalType": "uint256",
          "name": "tokenId",
          "type": "uint256"
        },
        {
          "internalType": "bytes",
          "name": "_data",
          "type": "bytes"
        }
      ],
      "name": "safeTransferFrom",
      "outputs": [],
      "stateMutability": "nonpayable",
      "type": "function"
    },
    {
      "inputs": [
        {
          "internalType": "address",
          "name": "operator",
          "type": "address"
        },
        {
          "internalType": "bool",
          "name": "approved",
          "type": "bool"
        }
      ],
      "name": "setApprovalForAll",
      "outputs": [],
      "stateMutability": "nonpayable",
      "type": "function"
    },
    {
      "inputs": [
        {
          "internalType": "bytes4",
          "name": "interfaceId",
          "type": "bytes4"
        }
      ],
      "name": "supportsInterface",
      "outputs": [
        {
          "internalType": "bool",
          "name": "",
          "type": "bool"
        }
      ],
      "stateMutability": "view",
      "type": "function"
    },
    {
      "inputs": [],
      "name": "symbol",
      "outputs": [
        {
          "internalType": "string",
          "name": "",
          "type": "string"
        }
      ],
      "stateMutability": "view",
      "type": "function"
    },
    {
      "inputs": [
        {
          "internalType": "uint256",
          "name": "tokenId",
          "type": "uint256"
        }
      ],
      "name": "tokenURI",
      "outputs": [
        {
          "internalType": "string",
          "name": "",
          "type": "string"
        }
      ],
      "stateMutability": "view",
      "type": "function"
    },
    {
      "inputs": [],
      "name": "totalEvent",
      "outputs": [
        {
          "internalType": "uint256",
          "name": "",
          "type": "uint256"
        }
      ],
      "stateMutability": "view",
      "type": "function"
    },
    {
      "inputs": [],
      "name": "totalSupply",
      "outputs": [
        {
          "internalType": "uint256",
          "name": "",
          "type": "uint256"
        }
      ],
      "stateMutability": "view",
      "type": "function"
    },
    {
      "inputs": [
        {
          "internalType": "address",
          "name": "from",
          "type": "address"
        },
        {
          "internalType": "address",
          "name": "to",
          "type": "address"
        },
        {
          "internalType": "uint256",
          "name": "tokenId",
          "type": "uint256"
        }
      ],
      "name": "transferFrom",
      "outputs": [],
      "stateMutability": "nonpayable",
      "type": "function"
    }
  ],
  "bytecode": "0x60806040523480156200001157600080fd5b50604051620043b2380380620043b28339818101604052810190620000379190620001a3565b818181600090805190602001906200005192919062000075565b5080600190805190602001906200006a92919062000075565b5050505050620003ac565b8280546200008390620002bd565b90600052602060002090601f016020900481019282620000a75760008555620000f3565b82601f10620000c257805160ff1916838001178555620000f3565b82800160010185558215620000f3579182015b82811115620000f2578251825591602001919060010190620000d5565b5b50905062000102919062000106565b5090565b5b808211156200012157600081600090555060010162000107565b5090565b60006200013c620001368462000251565b62000228565b9050828152602081018484840111156200015b576200015a6200038c565b5b6200016884828562000287565b509392505050565b600082601f83011262000188576200018762000387565b5b81516200019a84826020860162000125565b91505092915050565b60008060408385031215620001bd57620001bc62000396565b5b600083015167ffffffffffffffff811115620001de57620001dd62000391565b5b620001ec8582860162000170565b925050602083015167ffffffffffffffff81111562000210576200020f62000391565b5b6200021e8582860162000170565b9150509250929050565b60006200023462000247565b9050620002428282620002f3565b919050565b6000604051905090565b600067ffffffffffffffff8211156200026f576200026e62000358565b5b6200027a826200039b565b9050602081019050919050565b60005b83811015620002a75780820151818401526020810190506200028a565b83811115620002b7576000848401525b50505050565b60006002820490506001821680620002d657607f821691505b60208210811415620002ed57620002ec62000329565b5b50919050565b620002fe826200039b565b810181811067ffffffffffffffff8211171562000320576200031f62000358565b5b80604052505050565b7f4e487b7100000000000000000000000000000000000000000000000000000000600052602260045260246000fd5b7f4e487b7100000000000000000000000000000000000000000000000000000000600052604160045260246000fd5b600080fd5b600080fd5b600080fd5b600080fd5b6000601f19601f8301169050919050565b613ff680620003bc6000396000f3fe6080604052600436106101f95760003560e01c806370a082311161010d578063aed47961116100a0578063d45fc5161161006f578063d45fc516146107cc578063d654e99314610809578063e08033d314610832578063e985e9c51461085b578063eb1d234d14610898576101f9565b8063aed47961146106ec578063b10a5dfa14610729578063b88d4fde14610766578063c87b56dd1461078f576101f9565b806395d89b41116100dc57806395d89b411461061e5780639bc2bc7114610649578063a0fd0c6a14610686578063a22cb465146106c3576101f9565b806370a082311461053c5780637cedbc1e146105795780637eadfa6a146105b6578063932a196b146105e1576101f9565b80631cd043d6116101905780633592dd801161015f5780633592dd801461043357806342842e0e1461045c578063446a92e3146104855780635154380a146104c25780636352211e146104ff576101f9565b80631cd043d61461036757806323b872dd1461039057806328520ab7146103b957806335011d90146103f6576101f9565b8063095ea7b3116101cc578063095ea7b3146102cc5780630da3c49c146102f5578063144cbca61461031157806318160ddd1461033c576101f9565b806301538868146101fe57806301ffc9a71461022757806306fdde0314610264578063081812fc1461028f575b600080fd5b34801561020a57600080fd5b5061022560048036038101906102209190612e3f565b6108d5565b005b34801561023357600080fd5b5061024e60048036038101906102499190612d6f565b610949565b60405161025b9190613476565b60405180910390f35b34801561027057600080fd5b50610279610a2b565b6040516102869190613491565b60405180910390f35b34801561029b57600080fd5b506102b660048036038101906102b19190612e12565b610abd565b6040516102c391906133ed565b60405180910390f35b3480156102d857600080fd5b506102f360048036038101906102ee9190612d2f565b610b42565b005b61030f600480360381019061030a9190612e9b565b610c5a565b005b34801561031d57600080fd5b50610326610d7a565b6040516103339190613693565b60405180910390f35b34801561034857600080fd5b50610351610d80565b60405161035e9190613693565b60405180910390f35b34801561037357600080fd5b5061038e60048036038101906103899190612e3f565b610d8a565b005b34801561039c57600080fd5b506103b760048036038101906103b29190612baa565b610db6565b005b3480156103c557600080fd5b506103e060048036038101906103db9190612e3f565b610e16565b6040516103ed9190613693565b60405180910390f35b34801561040257600080fd5b5061041d60048036038101906104189190612cc0565b610eef565b60405161042a9190613693565b60405180910390f35b34801561043f57600080fd5b5061045a60048036038101906104559190612f7a565b610f52565b005b34801561046857600080fd5b50610483600480360381019061047e9190612baa565b610f96565b005b34801561049157600080fd5b506104ac60048036038101906104a79190612e12565b610fb6565b6040516104b99190613491565b60405180910390f35b3480156104ce57600080fd5b506104e960048036038101906104e49190612e12565b61105b565b6040516104f69190613454565b60405180910390f35b34801561050b57600080fd5b5061052660048036038101906105219190612e12565b61120b565b60405161053391906133ed565b60405180910390f35b34801561054857600080fd5b50610563600480360381019061055e9190612b3d565b6112bd565b6040516105709190613693565b60405180910390f35b34801561058557600080fd5b506105a0600480360381019061059b9190612e12565b611375565b6040516105ad9190613491565b60405180910390f35b3480156105c257600080fd5b506105cb61142e565b6040516105d89190613693565b60405180910390f35b3480156105ed57600080fd5b5061060860048036038101906106039190612dc9565b611438565b6040516106159190613693565b60405180910390f35b34801561062a57600080fd5b506106336114a7565b6040516106409190613491565b60405180910390f35b34801561065557600080fd5b50610670600480360381019061066b9190612dc9565b611539565b60405161067d9190613693565b60405180910390f35b34801561069257600080fd5b506106ad60048036038101906106a89190612e12565b611569565b6040516106ba9190613491565b60405180910390f35b3480156106cf57600080fd5b506106ea60048036038101906106e59190612c80565b61160e565b005b3480156106f857600080fd5b50610713600480360381019061070e9190612e12565b611624565b6040516107209190613454565b60405180910390f35b34801561073557600080fd5b50610750600480360381019061074b9190612f3a565b6117d4565b60405161075d9190613491565b60405180910390f35b34801561077257600080fd5b5061078d60048036038101906107889190612bfd565b611884565b005b34801561079b57600080fd5b506107b660048036038101906107b19190612e12565b6118e6565b6040516107c39190613491565b60405180910390f35b3480156107d857600080fd5b506107f360048036038101906107ee9190612dc9565b6119d3565b6040516108009190613693565b60405180910390f35b34801561081557600080fd5b50610830600480360381019061082b9190612f7a565b611a42565b005b34801561083e57600080fd5b5061085960048036038101906108549190612e3f565b611a86565b005b34801561086757600080fd5b50610882600480360381019061087d9190612b6a565b611ab2565b60405161088f9190613476565b60405180910390f35b3480156108a457600080fd5b506108bf60048036038101906108ba9190612e12565b611b46565b6040516108cc9190613454565b60405180910390f35b6108de82611cf6565b61091d576040517f08c379a000000000000000000000000000000000000000000000000000000000815260040161091490613613565b60405180910390fd5b8060126000848152602001908152602001600020908051906020019061094492919061289a565b505050565b60007f80ac58cd000000000000000000000000000000000000000000000000000000007bffffffffffffffffffffffffffffffffffffffffffffffffffffffff1916827bffffffffffffffffffffffffffffffffffffffffffffffffffffffff19161480610a1457507f5b5e139f000000000000000000000000000000000000000000000000000000007bffffffffffffffffffffffffffffffffffffffffffffffffffffffff1916827bffffffffffffffffffffffffffffffffffffffffffffffffffffffff1916145b80610a245750610a2382611d62565b5b9050919050565b606060008054610a3a90613948565b80601f0160208091040260200160405190810160405280929190818152602001828054610a6690613948565b8015610ab35780601f10610a8857610100808354040283529160200191610ab3565b820191906000526020600020905b815481529060010190602001808311610a9657829003601f168201915b5050505050905090565b6000610ac882611cf6565b610b07576040517f08c379a0000000000000000000000000000000000000000000000000000000008152600401610afe906135f3565b60405180910390fd5b6004600083815260200190815260200160002060009054906101000a900473ffffffffffffffffffffffffffffffffffffffff169050919050565b6000610b4d8261120b565b90508073ffffffffffffffffffffffffffffffffffffffff168373ffffffffffffffffffffffffffffffffffffffff161415610bbe576040517f08c379a0000000000000000000000000000000000000000000000000000000008152600401610bb590613653565b60405180910390fd5b8073ffffffffffffffffffffffffffffffffffffffff16610bdd611dcc565b73ffffffffffffffffffffffffffffffffffffffff161480610c0c5750610c0b81610c06611dcc565b611ab2565b5b610c4b576040517f08c379a0000000000000000000000000000000000000000000000000000000008152600401610c4290613573565b60405180910390fd5b610c558383611dd4565b505050565b6000610d0182601260008881526020019081526020016000208054610c7e90613948565b80601f0160208091040260200160405190810160405280929190818152602001828054610caa90613948565b8015610cf75780601f10610ccc57610100808354040283529160200191610cf7565b820191906000526020600020905b815481529060010190602001808311610cda57829003601f168201915b5050505050610e16565b905082601260008781526020019081526020016000209080519060200190610d2a92919061289a565b50610d36818385610f52565b610d43600a548686611a42565b600a6000815480929190610d56906139ab565b919050555060076000815480929190610d6e906139ab565b91905055505050505050565b600d5481565b6000600654905090565b80601360008481526020019081526020016000209080519060200190610db192919061289a565b505050565b610dc7610dc1611dcc565b82611e8d565b610e06576040517f08c379a0000000000000000000000000000000000000000000000000000000008152600401610dfd90613673565b60405180910390fd5b610e11838383611f6b565b505050565b600080600090505b600954811015610ee357610e31846121d2565b80519060200120600e6000838152602001908152602001600020600060028110610e5e57610e5d613ab2565b5b01604051610e6c91906133d6565b6040518091039020148015610ec257508280519060200120600e6000838152602001908152602001600020600160028110610eaa57610ea9613ab2565b5b01604051610eb891906133d6565b6040518091039020145b15610ed05780915050610ee9565b8080610edb906139ab565b915050610e1e565b50600090505b92915050565b6000610efd84600654612333565b610f09600654846108d5565b610f166009548385610f52565b60066000815480929190610f29906139ab565b919050555060096000815480929190610f41906139ab565b919050555060065490509392505050565b6040518060400160405280610f66846121d2565b815260200182815250600e6000858152602001908152602001600020906002610f90929190612920565b50505050565b610fb183838360405180602001604052806000815250611884565b505050565b6060601160008381526020019081526020016000208054610fd690613948565b80601f016020809104026020016040519081016040528092919081815260200182805461100290613948565b801561104f5780601f106110245761010080835404028352916020019161104f565b820191906000526020600020905b81548152906001019060200180831161103257829003601f168201915b50505050509050919050565b60606000600a67ffffffffffffffff81111561107a57611079613ae1565b5b6040519080825280602002602001820160405280156110ad57816020015b60608152602001906001900390816110985790505b5090506000805b600a54811015611200576110c7856121d2565b80519060200120600f60008381526020019081526020016000206000600281106110f4576110f3613ab2565b5b0160405161110291906133d6565b604051809103902014156111ed57600f600082815260200190815260200160002060016002811061113657611135613ab2565b5b01805461114290613948565b80601f016020809104026020016040519081016040528092919081815260200182805461116e90613948565b80156111bb5780601f10611190576101008083540402835291602001916111bb565b820191906000526020600020905b81548152906001019060200180831161119e57829003601f168201915b50505050508383815181106111d3576111d2613ab2565b5b602002602001018190525081806111e9906139ab565b9250505b80806111f8906139ab565b9150506110b4565b508192505050919050565b6000806002600084815260200190815260200160002060009054906101000a900473ffffffffffffffffffffffffffffffffffffffff169050600073ffffffffffffffffffffffffffffffffffffffff168173ffffffffffffffffffffffffffffffffffffffff1614156112b4576040517f08c379a00000000000000000000000000000000000000000000000000000000081526004016112ab906135b3565b60405180910390fd5b80915050919050565b60008073ffffffffffffffffffffffffffffffffffffffff168273ffffffffffffffffffffffffffffffffffffffff16141561132e576040517f08c379a000000000000000000000000000000000000000000000000000000000815260040161132590613593565b60405180910390fd5b600360008373ffffffffffffffffffffffffffffffffffffffff1673ffffffffffffffffffffffffffffffffffffffff168152602001908152602001600020549050919050565b60606010600083815260200190815260200160002060006002811061139d5761139c613ab2565b5b0180546113a990613948565b80601f01602080910402602001604051908101604052809291908181526020018280546113d590613948565b80156114225780601f106113f757610100808354040283529160200191611422565b820191906000526020600020905b81548152906001019060200180831161140557829003601f168201915b50505050509050919050565b6000600854905090565b600080600090505b60065481101561149c5782805190602001206012600083815260200190815260200160002060405161147291906133d6565b6040518091039020141561148957809150506114a2565b8080611494906139ab565b915050611440565b50600090505b919050565b6060600180546114b690613948565b80601f01602080910402602001604051908101604052809291908181526020018280546114e290613948565b801561152f5780601f106115045761010080835404028352916020019161152f565b820191906000526020600020905b81548152906001019060200180831161151257829003601f168201915b5050505050905090565b600061154760085483610d8a565b6008600081548092919061155a906139ab565b91905055506008549050919050565b606060136000838152602001908152602001600020805461158990613948565b80601f01602080910402602001604051908101604052809291908181526020018280546115b590613948565b80156116025780601f106115d757610100808354040283529160200191611602565b820191906000526020600020905b8154815290600101906020018083116115e557829003601f168201915b50505050509050919050565b611620611619611dcc565b838361250d565b5050565b60606000600a67ffffffffffffffff81111561164357611642613ae1565b5b60405190808252806020026020018201604052801561167657816020015b60608152602001906001900390816116615790505b5090506000805b600a548110156117c957611690856121d2565b80519060200120600f60008381526020019081526020016000206000600281106116bd576116bc613ab2565b5b016040516116cb91906133d6565b604051809103902014156117b657600f60008281526020019081526020016000206001600281106116ff576116fe613ab2565b5b01805461170b90613948565b80601f016020809104026020016040519081016040528092919081815260200182805461173790613948565b80156117845780601f1061175957610100808354040283529160200191611784565b820191906000526020600020905b81548152906001019060200180831161176757829003601f168201915b505050505083838151811061179c5761179b613ab2565b5b602002602001018190525081806117b2906139ab565b9250505b80806117c1906139ab565b91505061167d565b508192505050919050565b601060205281600052604060002081600281106117f057600080fd5b0160009150915050805461180390613948565b80601f016020809104026020016040519081016040528092919081815260200182805461182f90613948565b801561187c5780601f106118515761010080835404028352916020019161187c565b820191906000526020600020905b81548152906001019060200180831161185f57829003601f168201915b505050505081565b61189561188f611dcc565b83611e8d565b6118d4576040517f08c379a00000000000000000000000000000000000000000000000000000000081526004016118cb90613673565b60405180910390fd5b6118e08484848461267a565b50505050565b60606118f182611cf6565b611930576040517f08c379a000000000000000000000000000000000000000000000000000000000815260040161192790613633565b60405180910390fd5b60126000838152602001908152602001600020805461194e90613948565b80601f016020809104026020016040519081016040528092919081815260200182805461197a90613948565b80156119c75780601f1061199c576101008083540402835291602001916119c7565b820191906000526020600020905b8154815290600101906020018083116119aa57829003601f168201915b50505050509050919050565b600080600090505b600754811015611a3757828051906020012060116000838152602001908152602001600020604051611a0d91906133d6565b60405180910390201415611a245780915050611a3d565b8080611a2f906139ab565b9150506119db565b50600090505b919050565b6040518060400160405280611a56846121d2565b815260200182815250600f6000858152602001908152602001600020906002611a80929190612920565b50505050565b80601160008481526020019081526020016000209080519060200190611aad92919061289a565b505050565b6000600560008473ffffffffffffffffffffffffffffffffffffffff1673ffffffffffffffffffffffffffffffffffffffff16815260200190815260200160002060008373ffffffffffffffffffffffffffffffffffffffff1673ffffffffffffffffffffffffffffffffffffffff16815260200190815260200160002060009054906101000a900460ff16905092915050565b60606000600a67ffffffffffffffff811115611b6557611b64613ae1565b5b604051908082528060200260200182016040528015611b9857816020015b6060815260200190600190039081611b835790505b5090506000805b600954811015611ceb57611bb2856121d2565b80519060200120600e6000838152602001908152602001600020600060028110611bdf57611bde613ab2565b5b01604051611bed91906133d6565b60405180910390201415611cd857600e6000828152602001908152602001600020600160028110611c2157611c20613ab2565b5b018054611c2d90613948565b80601f0160208091040260200160405190810160405280929190818152602001828054611c5990613948565b8015611ca65780601f10611c7b57610100808354040283529160200191611ca6565b820191906000526020600020905b815481529060010190602001808311611c8957829003601f168201915b5050505050838381518110611cbe57611cbd613ab2565b5b60200260200101819052508180611cd4906139ab565b9250505b8080611ce3906139ab565b915050611b9f565b508192505050919050565b60008073ffffffffffffffffffffffffffffffffffffffff166002600084815260200190815260200160002060009054906101000a900473ffffffffffffffffffffffffffffffffffffffff1673ffffffffffffffffffffffffffffffffffffffff1614159050919050565b60007f01ffc9a7000000000000000000000000000000000000000000000000000000007bffffffffffffffffffffffffffffffffffffffffffffffffffffffff1916827bffffffffffffffffffffffffffffffffffffffffffffffffffffffff1916149050919050565b600033905090565b816004600083815260200190815260200160002060006101000a81548173ffffffffffffffffffffffffffffffffffffffff021916908373ffffffffffffffffffffffffffffffffffffffff160217905550808273ffffffffffffffffffffffffffffffffffffffff16611e478361120b565b73ffffffffffffffffffffffffffffffffffffffff167f8c5be1e5ebec7d5bd14f71427d1e84f3dd0314c0f7b2291e5b200ac8c7c3b92560405160405180910390a45050565b6000611e9882611cf6565b611ed7576040517f08c379a0000000000000000000000000000000000000000000000000000000008152600401611ece90613553565b60405180910390fd5b6000611ee28361120b565b90508073ffffffffffffffffffffffffffffffffffffffff168473ffffffffffffffffffffffffffffffffffffffff161480611f5157508373ffffffffffffffffffffffffffffffffffffffff16611f3984610abd565b73ffffffffffffffffffffffffffffffffffffffff16145b80611f625750611f618185611ab2565b5b91505092915050565b8273ffffffffffffffffffffffffffffffffffffffff16611f8b8261120b565b73ffffffffffffffffffffffffffffffffffffffff1614611fe1576040517f08c379a0000000000000000000000000000000000000000000000000000000008152600401611fd8906134d3565b60405180910390fd5b600073ffffffffffffffffffffffffffffffffffffffff168273ffffffffffffffffffffffffffffffffffffffff161415612051576040517f08c379a000000000000000000000000000000000000000000000000000000000815260040161204890613513565b60405180910390fd5b61205c8383836126d6565b612067600082611dd4565b6001600360008573ffffffffffffffffffffffffffffffffffffffff1673ffffffffffffffffffffffffffffffffffffffff16815260200190815260200160002060008282546120b7919061385e565b925050819055506001600360008473ffffffffffffffffffffffffffffffffffffffff1673ffffffffffffffffffffffffffffffffffffffff168152602001908152602001600020600082825461210e91906137d7565b92505081905550816002600083815260200190815260200160002060006101000a81548173ffffffffffffffffffffffffffffffffffffffff021916908373ffffffffffffffffffffffffffffffffffffffff160217905550808273ffffffffffffffffffffffffffffffffffffffff168473ffffffffffffffffffffffffffffffffffffffff167fddf252ad1be2c89b69c2b068fc378daa952ba7f163c4a11628f55a4df523b3ef60405160405180910390a46121cd8383836126db565b505050565b6060600082141561221a576040518060400160405280600181526020017f3000000000000000000000000000000000000000000000000000000000000000815250905061232e565b600082905060005b6000821461224c578080612235906139ab565b915050600a82612245919061382d565b9150612222565b60008167ffffffffffffffff81111561226857612267613ae1565b5b6040519080825280601f01601f19166020018201604052801561229a5781602001600182028036833780820191505090505b5090505b60008514612327576001826122b3919061385e565b9150600a856122c291906139f4565b60306122ce91906137d7565b60f81b8183815181106122e4576122e3613ab2565b5b60200101907effffffffffffffffffffffffffffffffffffffffffffffffffffffffffffff1916908160001a905350600a85612320919061382d565b945061229e565b8093505050505b919050565b600073ffffffffffffffffffffffffffffffffffffffff168273ffffffffffffffffffffffffffffffffffffffff1614156123a3576040517f08c379a000000000000000000000000000000000000000000000000000000000815260040161239a906135d3565b60405180910390fd5b6123ac81611cf6565b156123ec576040517f08c379a00000000000000000000000000000000000000000000000000000000081526004016123e3906134f3565b60405180910390fd5b6123f8600083836126d6565b6001600360008473ffffffffffffffffffffffffffffffffffffffff1673ffffffffffffffffffffffffffffffffffffffff168152602001908152602001600020600082825461244891906137d7565b92505081905550816002600083815260200190815260200160002060006101000a81548173ffffffffffffffffffffffffffffffffffffffff021916908373ffffffffffffffffffffffffffffffffffffffff160217905550808273ffffffffffffffffffffffffffffffffffffffff16600073ffffffffffffffffffffffffffffffffffffffff167fddf252ad1be2c89b69c2b068fc378daa952ba7f163c4a11628f55a4df523b3ef60405160405180910390a4612509600083836126db565b5050565b8173ffffffffffffffffffffffffffffffffffffffff168373ffffffffffffffffffffffffffffffffffffffff16141561257c576040517f08c379a000000000000000000000000000000000000000000000000000000000815260040161257390613533565b60405180910390fd5b80600560008573ffffffffffffffffffffffffffffffffffffffff1673ffffffffffffffffffffffffffffffffffffffff16815260200190815260200160002060008473ffffffffffffffffffffffffffffffffffffffff1673ffffffffffffffffffffffffffffffffffffffff16815260200190815260200160002060006101000a81548160ff0219169083151502179055508173ffffffffffffffffffffffffffffffffffffffff168373ffffffffffffffffffffffffffffffffffffffff167f17307eab39ab6107e8899845ad3d59bd9653f200f220920489ca2b5937696c318360405161266d9190613476565b60405180910390a3505050565b612685848484611f6b565b612691848484846126e0565b6126d0576040517f08c379a00000000000000000000000000000000000000000000000000000000081526004016126c7906134b3565b60405180910390fd5b50505050565b505050565b505050565b60006127018473ffffffffffffffffffffffffffffffffffffffff16612877565b1561286a578373ffffffffffffffffffffffffffffffffffffffff1663150b7a0261272a611dcc565b8786866040518563ffffffff1660e01b815260040161274c9493929190613408565b602060405180830381600087803b15801561276657600080fd5b505af192505050801561279757506040513d601f19601f820116820180604052508101906127949190612d9c565b60015b61281a573d80600081146127c7576040519150601f19603f3d011682016040523d82523d6000602084013e6127cc565b606091505b50600081511415612812576040517f08c379a0000000000000000000000000000000000000000000000000000000008152600401612809906134b3565b60405180910390fd5b805181602001fd5b63150b7a0260e01b7bffffffffffffffffffffffffffffffffffffffffffffffffffffffff1916817bffffffffffffffffffffffffffffffffffffffffffffffffffffffff19161491505061286f565b600190505b949350505050565b6000808273ffffffffffffffffffffffffffffffffffffffff163b119050919050565b8280546128a690613948565b90600052602060002090601f0160209004810192826128c8576000855561290f565b82601f106128e157805160ff191683800117855561290f565b8280016001018555821561290f579182015b8281111561290e5782518255916020019190600101906128f3565b5b50905061291c9190612973565b5090565b8260028101928215612962579160200282015b8281111561296157825182908051906020019061295192919061289a565b5091602001919060010190612933565b5b50905061296f9190612990565b5090565b5b8082111561298c576000816000905550600101612974565b5090565b5b808211156129b057600081816129a791906129b4565b50600101612991565b5090565b5080546129c090613948565b6000825580601f106129d257506129f1565b601f0160209004906000526020600020908101906129f09190612973565b5b50565b6000612a07612a02846136d3565b6136ae565b905082815260208101848484011115612a2357612a22613b15565b5b612a2e848285613906565b509392505050565b6000612a49612a4484613704565b6136ae565b905082815260208101848484011115612a6557612a64613b15565b5b612a70848285613906565b509392505050565b600081359050612a8781613f64565b92915050565b600081359050612a9c81613f7b565b92915050565b600081359050612ab181613f92565b92915050565b600081519050612ac681613f92565b92915050565b600082601f830112612ae157612ae0613b10565b5b8135612af18482602086016129f4565b91505092915050565b600082601f830112612b0f57612b0e613b10565b5b8135612b1f848260208601612a36565b91505092915050565b600081359050612b3781613fa9565b92915050565b600060208284031215612b5357612b52613b1f565b5b6000612b6184828501612a78565b91505092915050565b60008060408385031215612b8157612b80613b1f565b5b6000612b8f85828601612a78565b9250506020612ba085828601612a78565b9150509250929050565b600080600060608486031215612bc357612bc2613b1f565b5b6000612bd186828701612a78565b9350506020612be286828701612a78565b9250506040612bf386828701612b28565b9150509250925092565b60008060008060808587031215612c1757612c16613b1f565b5b6000612c2587828801612a78565b9450506020612c3687828801612a78565b9350506040612c4787828801612b28565b925050606085013567ffffffffffffffff811115612c6857612c67613b1a565b5b612c7487828801612acc565b91505092959194509250565b60008060408385031215612c9757612c96613b1f565b5b6000612ca585828601612a78565b9250506020612cb685828601612a8d565b9150509250929050565b600080600060608486031215612cd957612cd8613b1f565b5b6000612ce786828701612a78565b935050602084013567ffffffffffffffff811115612d0857612d07613b1a565b5b612d1486828701612afa565b9250506040612d2586828701612b28565b9150509250925092565b60008060408385031215612d4657612d45613b1f565b5b6000612d5485828601612a78565b9250506020612d6585828601612b28565b9150509250929050565b600060208284031215612d8557612d84613b1f565b5b6000612d9384828501612aa2565b91505092915050565b600060208284031215612db257612db1613b1f565b5b6000612dc084828501612ab7565b91505092915050565b600060208284031215612ddf57612dde613b1f565b5b600082013567ffffffffffffffff811115612dfd57612dfc613b1a565b5b612e0984828501612afa565b91505092915050565b600060208284031215612e2857612e27613b1f565b5b6000612e3684828501612b28565b91505092915050565b60008060408385031215612e5657612e55613b1f565b5b6000612e6485828601612b28565b925050602083013567ffffffffffffffff811115612e8557612e84613b1a565b5b612e9185828601612afa565b9150509250929050565b60008060008060808587031215612eb557612eb4613b1f565b5b6000612ec387828801612b28565b945050602085013567ffffffffffffffff811115612ee457612ee3613b1a565b5b612ef087828801612afa565b935050604085013567ffffffffffffffff811115612f1157612f10613b1a565b5b612f1d87828801612afa565b9250506060612f2e87828801612b28565b91505092959194509250565b60008060408385031215612f5157612f50613b1f565b5b6000612f5f85828601612b28565b9250506020612f7085828601612b28565b9150509250929050565b600080600060608486031215612f9357612f92613b1f565b5b6000612fa186828701612b28565b9350506020612fb286828701612b28565b925050604084013567ffffffffffffffff811115612fd357612fd2613b1a565b5b612fdf86828701612afa565b9150509250925092565b6000612ff58383613148565b905092915050565b61300681613892565b82525050565b60006130178261375a565b6130218185613788565b93508360208202850161303385613735565b8060005b8581101561306f57848403895281516130508582612fe9565b945061305b8361377b565b925060208a01995050600181019050613037565b50829750879550505050505092915050565b61308a816138a4565b82525050565b600061309b82613765565b6130a58185613799565b93506130b5818560208601613915565b6130be81613b24565b840191505092915050565b600081546130d681613948565b6130e081866137aa565b945060018216600081146130fb576001811461310c5761313f565b60ff1983168652818601935061313f565b61311585613745565b60005b8381101561313757815481890152600182019150602081019050613118565b838801955050505b50505092915050565b600061315382613770565b61315d81856137b5565b935061316d818560208601613915565b61317681613b24565b840191505092915050565b600061318c82613770565b61319681856137c6565b93506131a6818560208601613915565b6131af81613b24565b840191505092915050565b60006131c76032836137c6565b91506131d282613b35565b604082019050919050565b60006131ea6025836137c6565b91506131f582613b84565b604082019050919050565b600061320d601c836137c6565b915061321882613bd3565b602082019050919050565b60006132306024836137c6565b915061323b82613bfc565b604082019050919050565b60006132536019836137c6565b915061325e82613c4b565b602082019050919050565b6000613276602c836137c6565b915061328182613c74565b604082019050919050565b60006132996038836137c6565b91506132a482613cc3565b604082019050919050565b60006132bc602a836137c6565b91506132c782613d12565b604082019050919050565b60006132df6029836137c6565b91506132ea82613d61565b604082019050919050565b60006133026020836137c6565b915061330d82613db0565b602082019050919050565b6000613325602c836137c6565b915061333082613dd9565b604082019050919050565b6000613348602c836137c6565b915061335382613e28565b604082019050919050565b600061336b602f836137c6565b915061337682613e77565b604082019050919050565b600061338e6021836137c6565b915061339982613ec6565b604082019050919050565b60006133b16031836137c6565b91506133bc82613f15565b604082019050919050565b6133d0816138fc565b82525050565b60006133e282846130c9565b915081905092915050565b60006020820190506134026000830184612ffd565b92915050565b600060808201905061341d6000830187612ffd565b61342a6020830186612ffd565b61343760408301856133c7565b81810360608301526134498184613090565b905095945050505050565b6000602082019050818103600083015261346e818461300c565b905092915050565b600060208201905061348b6000830184613081565b92915050565b600060208201905081810360008301526134ab8184613181565b905092915050565b600060208201905081810360008301526134cc816131ba565b9050919050565b600060208201905081810360008301526134ec816131dd565b9050919050565b6000602082019050818103600083015261350c81613200565b9050919050565b6000602082019050818103600083015261352c81613223565b9050919050565b6000602082019050818103600083015261354c81613246565b9050919050565b6000602082019050818103600083015261356c81613269565b9050919050565b6000602082019050818103600083015261358c8161328c565b9050919050565b600060208201905081810360008301526135ac816132af565b9050919050565b600060208201905081810360008301526135cc816132d2565b9050919050565b600060208201905081810360008301526135ec816132f5565b9050919050565b6000602082019050818103600083015261360c81613318565b9050919050565b6000602082019050818103600083015261362c8161333b565b9050919050565b6000602082019050818103600083015261364c8161335e565b9050919050565b6000602082019050818103600083015261366c81613381565b9050919050565b6000602082019050818103600083015261368c816133a4565b9050919050565b60006020820190506136a860008301846133c7565b92915050565b60006136b86136c9565b90506136c4828261397a565b919050565b6000604051905090565b600067ffffffffffffffff8211156136ee576136ed613ae1565b5b6136f782613b24565b9050602081019050919050565b600067ffffffffffffffff82111561371f5761371e613ae1565b5b61372882613b24565b9050602081019050919050565b6000819050602082019050919050565b60008190508160005260206000209050919050565b600081519050919050565b600081519050919050565b600081519050919050565b6000602082019050919050565b600082825260208201905092915050565b600082825260208201905092915050565b600081905092915050565b600082825260208201905092915050565b600082825260208201905092915050565b60006137e2826138fc565b91506137ed836138fc565b9250827fffffffffffffffffffffffffffffffffffffffffffffffffffffffffffffffff0382111561382257613821613a25565b5b828201905092915050565b6000613838826138fc565b9150613843836138fc565b92508261385357613852613a54565b5b828204905092915050565b6000613869826138fc565b9150613874836138fc565b92508282101561388757613886613a25565b5b828203905092915050565b600061389d826138dc565b9050919050565b60008115159050919050565b60007fffffffff0000000000000000000000000000000000000000000000000000000082169050919050565b600073ffffffffffffffffffffffffffffffffffffffff82169050919050565b6000819050919050565b82818337600083830152505050565b60005b83811015613933578082015181840152602081019050613918565b83811115613942576000848401525b50505050565b6000600282049050600182168061396057607f821691505b6020821081141561397457613973613a83565b5b50919050565b61398382613b24565b810181811067ffffffffffffffff821117156139a2576139a1613ae1565b5b80604052505050565b60006139b6826138fc565b91507fffffffffffffffffffffffffffffffffffffffffffffffffffffffffffffffff8214156139e9576139e8613a25565b5b600182019050919050565b60006139ff826138fc565b9150613a0a836138fc565b925082613a1a57613a19613a54565b5b828206905092915050565b7f4e487b7100000000000000000000000000000000000000000000000000000000600052601160045260246000fd5b7f4e487b7100000000000000000000000000000000000000000000000000000000600052601260045260246000fd5b7f4e487b7100000000000000000000000000000000000000000000000000000000600052602260045260246000fd5b7f4e487b7100000000000000000000000000000000000000000000000000000000600052603260045260246000fd5b7f4e487b7100000000000000000000000000000000000000000000000000000000600052604160045260246000fd5b600080fd5b600080fd5b600080fd5b600080fd5b6000601f19601f8301169050919050565b7f4552433732313a207472616e7366657220746f206e6f6e20455243373231526560008201527f63656976657220696d706c656d656e7465720000000000000000000000000000602082015250565b7f4552433732313a207472616e736665722066726f6d20696e636f72726563742060008201527f6f776e6572000000000000000000000000000000000000000000000000000000602082015250565b7f4552433732313a20746f6b656e20616c7265616479206d696e74656400000000600082015250565b7f4552433732313a207472616e7366657220746f20746865207a65726f2061646460008201527f7265737300000000000000000000000000000000000000000000000000000000602082015250565b7f4552433732313a20617070726f766520746f2063616c6c657200000000000000600082015250565b7f4552433732313a206f70657261746f7220717565727920666f72206e6f6e657860008201527f697374656e7420746f6b656e0000000000000000000000000000000000000000602082015250565b7f4552433732313a20617070726f76652063616c6c6572206973206e6f74206f7760008201527f6e6572206e6f7220617070726f76656420666f7220616c6c0000000000000000602082015250565b7f4552433732313a2062616c616e636520717565727920666f7220746865207a6560008201527f726f206164647265737300000000000000000000000000000000000000000000602082015250565b7f4552433732313a206f776e657220717565727920666f72206e6f6e657869737460008201527f656e7420746f6b656e0000000000000000000000000000000000000000000000602082015250565b7f4552433732313a206d696e7420746f20746865207a65726f2061646472657373600082015250565b7f4552433732313a20617070726f76656420717565727920666f72206e6f6e657860008201527f697374656e7420746f6b656e0000000000000000000000000000000000000000602082015250565b7f4552433732314d657461646174613a2055524920736574206f66206e6f6e657860008201527f697374656e7420746f6b656e0000000000000000000000000000000000000000602082015250565b7f4552433732314d657461646174613a2055524920717565727920666f72206e6f60008201527f6e6578697374656e7420746f6b656e0000000000000000000000000000000000602082015250565b7f4552433732313a20617070726f76616c20746f2063757272656e74206f776e6560008201527f7200000000000000000000000000000000000000000000000000000000000000602082015250565b7f4552433732313a207472616e736665722063616c6c6572206973206e6f74206f60008201527f776e6572206e6f7220617070726f766564000000000000000000000000000000602082015250565b613f6d81613892565b8114613f7857600080fd5b50565b613f84816138a4565b8114613f8f57600080fd5b50565b613f9b816138b0565b8114613fa657600080fd5b50565b613fb2816138fc565b8114613fbd57600080fd5b5056fea264697066735822122024531296f63b9e525a1de0443758be00110b75284770efa718f42378a5aba0a964736f6c63430008060033",
  "linkReferences": {},
  "deployedLinkReferences": {}
}